:10000000A7C00000C2C00000C0C00000BEC0000009
:10001000BCC000000C94C713B8C00000B6C00000FC
:10002000B4C00000B2C00000B0C00000AEC000000C
:10003000ACC00000AAC00000A8C00000A6C000001C
:100040000C94A11BA2C000000C942F1B0C94CB1A83
:100050009CC000009AC0000098C0000096C000003C
:1000600094C0000092C0000008000000BE92244925
:10007000123EABAAAA2ABECDCCCC4C3E00000080DA
:10008000BEABAAAAAA3E00000000BF000000803F4D
:100090000000000000084178D3BB4387D1133D190D
:1000A0000E3CC3BD4282AD2B3E68EC8276BED98F3A
:1000B000E1A93E4C80EFFFBE01C4FF7F3F0000007E
:1000C0000000000102030541524D3B414E474C45A3
:1000D0003B484F52495A4F4E3B4241524F3B4D4194
:1000E000473B00524F4C4C3B50495443483B5941CD
:1000F000573B414C543B506F733B506F73523B4ED8
:100100006176523B4C4556454C3B4D41473B56452D
:100110004C3B00010204081020408001020408103A
:10012000200102040810200404040404040404024E
:10013000020202020203030303030300000000257E
:100140000028002B0000000000240027002A0000E7
:1001500011241FBECFEFD8E0DEBFCDBF11E0A0E07D
:10016000B1E0E4EBFFE302C005900D92AE34B107BD
:10017000D9F725E0AEE4B1E001C01D92AE3DB20773
:10018000E1F70E94941B0C94D81F3ACFCF92DF92D4
:10019000EF92FF920F931F93CF93DF93182F042FAB
:1001A000D0E0C62ED12CE12CF12CD01791F0C0E07C
:1001B000C11739F01D9AC701B6010E940E1CCF5F0E
:1001C000F7CF6CE370E080E090E00E940E1CDF5FF0
:1001D000ECCFDF91CF911F910F91FF90EF90DF90C7
:1001E000CF900895FC0185E5615019F09191890F38
:1001F000FBCF089540E150E060E070E08DE392E0D5
:100200000E94B11F60E18DE392E0ECDF90914C021F
:10021000891741F010923D0288E893E190933F02E4
:1002200080933E020895CF93C82F60E18DE392E062
:10023000D9DF80934C0240E150E060E070E08DE354
:1002400092E00E94C11FC13029F441E064E18FE0D7
:10025000CF919CCFCF91089581E28093C9012EE187
:100260002093CA0197E19093CB018093CC01209316
:10027000CD019093CE019AE59093DE012AE0209380
:10028000DF0124E62093E00124E42093CF012DE256
:100290002093D0011092D10120E42093D20129E1D2
:1002A0002093D30138E13093D4013FE03093D5015E
:1002B0001092D6011092D70132E23093D8013EE07D
:1002C0003093D90135E33093DA012093DB01809339
:1002D000DC0183E58093DD0188E28093E1011092E7
:1002E000E4011092E5011092E6019093E70181E4A8
:1002F0008093E8011092E9011092EA011092EB015B
:1003000082E38093EC011092ED011092F3011092C0
:10031000F2011092F5011092F4011092F70110927F
:10032000F6011092F9011092F8011092FB0110925F
:10033000FA011092EF011092EE011092F101109269
:10034000F0011092FC0116C12F923F924F925F92E2
:100350006F927F928F929F92AF92BF92CF92DF92D5
:10036000EF92FF920F931F93CF93DF93CDB7DEB73A
:100370002A970FB6F894DEBF0FBECDBF10923D0294
:1003800044E750E060E170E089EC91E00E94B11F29
:1003900064E789EC91E026DF90913C02891739F0FF
:1003A00043E064E686E0F2DE57DF80E0AEC0C09056
:1003B000E801D12CE090E7010DE712E0612C712CEF
:1003C000F12C38EA832E34E0932EA12CB12C669CBC
:1003D000C001679C900D900D11240F97C89E90014D
:1003E000C99E300DD89E300D1124C9018A509A4FF4
:1003F000869DD001879DB00D969DB00D112497016B
:100400000E94171DA50194010E94EC1CF801219384
:1004100031938F01FFEF6F1A7F0A25E06216710496
:10042000B1F60091EC0184E6A82EA01A34E6039FF1
:10043000100111248091ED01482E512C612C712C5A
:100440008090370290903802EAE3F7E0E819F90962
:10045000FA87E987102F119527E632E03A8329833E
:100460009EE6B92EB01AE82FF0E0F887EF8320E17E
:10047000C22E27E2D22EE12CF12C111614F44A2DB3
:1004800001C0402F1102D00111242F8138850E9414
:10049000171D6B837C838D839E83242F30E0D901CD
:1004A0000E94081D9B01AC016B817C818D819E8126
:1004B0000E94EC1C2C593F4F4F4F5F4F24193509B8
:1004C00046095709812F992787FD9095829FB00192
:1004D000839F700D929F700D1124620D731D9B01FF
:1004E000A985BA850E94081DA70196010E94CA1C11
:1004F000C401820F931FE981FA8181939193FA835A
:10050000E983165F1B11B9CF81E02A960FB6F894E4
:10051000DEBF0FBECDBFDF91CF911F910F91FF9036
:10052000EF90DF90CF90BF90AF909F908F907F9093
:100530006F905F904F903F902F900895CF93C82F6A
:1005400010923D0264E789EC91E04CDE80933C021E
:1005500044E750E060E170E089EC91E00E94C11F47
:10056000F3DEC13029F441E064E18FE0CF910ECE9B
:10057000CF9108958EE794E09093380280933702EC
:1005800088E290E09093FE018093FD018AE08093E1
:10059000390288E790E090933B0280933A0280E032
:1005A000CDCF4F925F926F927F928F929F92AF9238
:1005B000BF92CF92DF92EF92FF92CF936B017C01BB
:1005C00049015A010E94411E2B013C01B701A601BD
:1005D000F7FE07C044275527BA014C195D096E097B
:1005E0007F09D501C401B7FE07C088279927DC0120
:1005F00088199909AA09BB09C1E0481759076A0770
:100600007B0744F0C0E0C501B4010E94411EA30174
:10061000920108C0C501B4010E94411E9B01AC01BA
:10062000C301B2010E94A61D2B013C019B01AC013C
:100630000E94121F21ED31E944E650E40E94421D60
:100640009B01AC01C301B2010E94A61D23EC3DEC4D
:100650004FEF54E40E94121F0E940E1E9B01CC23F8
:1006600059F0B7FE12C0F7FE03C0285037400DC046
:100670009B01285F384F09C0F7FC03C024E833E032
:1006800002C02CE73CEF261B370BC901CF91FF902E
:10069000EF90DF90CF90BF90AF909F908F907F9022
:1006A0006F905F904F900895CF92DF92EF92FF92FC
:1006B0000F931F938B019C013595279517950795EF
:1006C00059EFC52EDD24DA945FE1E52E5FE5F52EC6
:1006D000C01AD10AE20AF30A27E336E344E35FE3F0
:1006E0000E94121FA70196010E94121FA7019601E6
:1006F0000E94121F9B01AC0166EF78E487ED9FE337
:100700000E94411D9B01AC01C701B6010E94121F4E
:100710001F910F91FF90EF90DF90CF9008959B0174
:10072000AC01AA27429FB0015302C00134039A0BC7
:10073000700D811D9A1F52039A0B700D811D9A1F17
:10074000112408954F925F926F927F92AF92BF9261
:10075000CF92DF92EF92FF920F931F93CF93DF938D
:10076000EC018B01AA80BB80CE80DF80EA84FB8411
:10077000B501F80180819181D2DF2B013C01B601E6
:10078000F80182819381CBDF640D751D861D971D55
:10079000488459846A847B84461A570A680A790A0D
:1007A000488659866A867B86B701F80180819181E7
:1007B000B6DF2B013C01B601F80184819581AFDFE2
:1007C000461A570A680A790A88819981AA81BB81E9
:1007D000840D951DA61DB71D88839983AA83BB83AD
:1007E000B701F801828193819ADF6B017C01B50129
:1007F000F8018481958193DF6C0D7D1D8E1D9F1DF9
:100800000C811D812E813F81060F171F281F391F64
:100810000C831D832E833F83DF91CF911F910F9116
:10082000FF90EF90DF90CF90BF90AF907F906F9050
:100830005F904F9008952F923F924F925F926F92E8
:100840007F928F929F92AF92BF92CF92DF92EF9260
:10085000FF920F931F93CF93DF93CDB7DEB76297CD
:100860000FB6F894DEBF0FBECDBF0E94EB1B6B012D
:100870007C0180917A0190917B01B601681B790B14
:1008800080E090E00E943F1E29E134E442E959E310
:100890000E94121F6B877C878D879E87D0927B0179
:1008A000C0927A014EE6242E41E0342E9E012F5F45
:1008B0003F4F590105ED12E033E03F83C12CD12CAD
:1008C00076014501D1014D905D906D907C90D301F2
:1008D000C20134E0B695A795979587953A95D1F7DB
:1008E000F80191838083408D518D481B590B6627F9
:1008F00057FD6095762F440D551D661D771DF1013E
:1009000041935193619371931F01BC0108DFC60E9F
:10091000D71EE81EF91ED80152966D917C9153970F
:10092000882777FD8095982F0E94411E2B853C8556
:100930004D855E850E94121F0E940E1EF501619377
:1009400071935F01FF81F150FF830E5F1F4FF11123
:10095000B9CFB40180E091E0F5DEB40182E691E028
:10096000F1DECD2CDE2CEF2CFF24E7FCFA9427E6F9
:10097000C21A23E0D20A00E011E082E6E82E81E00C
:10098000F82E95ED692E92E0792E23E0522E812CDF
:10099000912C540132E3C31631E0D306F8F4D301AD
:1009A0004D915C91F80182819381481B590B662718
:1009B00057FD6095762FB6E0440F551F661F771FD1
:1009C000BA95D1F780819181A281B381840F951F5F
:1009D000A61FB71F80839183A283B383D801129689
:1009E0006D917C911397F3018081918198DE860E41
:1009F000971EA81EB91ED3011C964D915C911D97A0
:100A0000F70182819381481B590B662757FD60953A
:100A1000762F762F652F542F442780819181A281D4
:100A2000B381840F951FA61FB71F81939193A19344
:100A3000B1937F015A940C5F1F4FF2E06F0E711C4F
:100A40005110A8CF80910A0190910B012091B6021C
:100A5000813D914024F020682093B60204C0822F8B
:100A60008F778093B6028091020190910301BC01BF
:100A700056DE6B017C0180910A0190910B01BC0153
:100A80004EDEC60ED71EE81EF91E8091060190911B
:100A90000701BC0144DE6C0D7D1D8E1D9F1D0E9453
:100AA000411E02DE2B013C01009102011091030165
:100AB00020910A0130910B01442737FD4095542FB6
:100AC000B801882777FD8095982F6BDD9093C10240
:100AD0008093C002C701B6010E94411E9B01AC0178
:100AE0002F87388B498B5A8BDFDD2F8538894989D1
:100AF0005A890E94121F0E940E1E9B01AC01809118
:100B0000060190910701BC01882777FD8095982FF9
:100B100048DD9093C3028093C202A0916801B09116
:100B20006901A70196010E94271D6B017C01B80194
:100B30008091640190916501F2DD6F8378878987E8
:100B40009A8760910A0170910B0180916C019091DC
:100B50006D01E5DD9B01AC018F819885A985BA8582
:100B6000280F391F4A1F5B1FA0910601B091070192
:100B70000E94271DA7019601261B370B480B590B16
:100B8000CA01B9010E94411EA30192010E94121FD5
:100B90000E940E1E9B01AC01609102017091030145
:100BA00080916C0190916D012F87388B498B5A8B06
:100BB000B6DD6B017C0160910A0170910B0180919F
:100BC000640190916501ABDD6F83788789879A878F
:100BD000C61AD70AE80AF90A2F85388949895A8935
:100BE000C701B601DEDC2091FD013091FE01280F26
:100BF000391FC9016AE070E00E94B71C7093C502FA
:100C00006093C402C501B4010E94411EA301920178
:100C10000E94121F0E940E1E2091B60221FD12C0DA
:100C20002091600130916101A901F3E0559547954C
:100C3000FA95E1F7241B350B260F371F309361011E
:100C4000209360012091600130916101E3E03595CE
:100C50002795EA95E1F7621B730B70938901609306
:100C6000880162960FB6F894DEBF0FBECDBFDF914C
:100C7000CF911F910F91FF90EF90DF90CF90BF9099
:100C8000AF909F908F907F906F905F904F903F902C
:100C90002F900895CF92DF92EF92FF920F931F93C0
:100CA000CF93DF930E94E519C6DD0E94AB198091B6
:100CB000E7029091E80290938301809382018091F2
:100CC000E9029091EA0290938501809384018091DA
:100CD000EB029091EC0290938701809386010E9431
:100CE000EB1BEB0140D20E94EB1B6C1B7D0B6A38A7
:100CF0007240CCF30E94AB1967EEE62E62E0F62E4E
:100D0000C2E8D1E0ECE7F1E00BED12E040E073E087
:100D1000C72ED12CD7012D913D917D0188819981DC
:100D2000280F391F2993399380819181820F931F56
:100D3000B6010E94B71CD8016D937D938D01359546
:100D40002795219331934F5F433021F7DF91CF9166
:100D50001F910F91FF90EF90DF90CF9008958F92A9
:100D60009F92AF92BF92CF92DF92EF92FF920F933A
:100D70001F93CF93DF930E94EB1B20915E01309174
:100D80005F01EB01C21BD30BC83A21E6D20708F47E
:100D9000DCC170935F0160935E0100910A031091C2
:100DA0000B0301151105B1F16091B1017091B20110
:100DB0008091B3019091B4010E94411E0E94D21E05
:100DC00060935A0170935B0180935C0190935D0185
:100DD0006091B5017091B601882777FD8095982FB5
:100DE0006D5475498F4F9F4F0E94411E2EE83BE284
:100DF0004AE652E40E94121F609356017093570115
:100E000080935801909359010150110910930B03DD
:100E100000930A036091B1017091B2018091B30116
:100E20009091B4010E94411E0E94D21E4B015C01B0
:100E30002091C6023091C7024091C8025091C90268
:100E4000A6E0B0E00E941D1D6B017C01A50194018C
:100E500060915A0170915B0180915C0190915D01FC
:100E60000E94411D20915601309157014091580137
:100E7000509159010E94121F0E940E1E6C0D7D1D83
:100E80008E1D9F1D13E095958795779567951A950B
:100E9000D1F76093C6027093C7028093C802909303
:100EA000C9020091FD021091FE022091FF023091D3
:100EB0000003061B170B280B390B043D4EEF1407DC
:100EC0004FEF240734075CF00D32E1E01E072105E7
:100ED00031053CF00CE211E020E030E002C004ED0E
:100EE0001EEF9801275F3F4F2331310560F0101648
:100EF00011061CF40A50110908C00115110529F04A
:100F0000065F1F4F02C000E010E02091D201209F39
:100F1000A001219F500D1124440F452F441F550B54
:100F20004739510514F046E950E0E091D301E09FC4
:100F30009001E19F300D1124A6E035952795AA95E3
:100F4000E1F7E091F902F091FA022E0F3F1F2133F1
:100F5000E5E73E0714F020E335E7203DEAE83E07E9
:100F600014F420ED3AE83093FA022093F9024A365D
:100F7000EFEF5E0714F44AE65FEF232F330F330BD6
:100F80002595240F351F3093FC022093FB022091FE
:100F9000880130918901A901415F5F4F4F315105AF
:100FA00028F410928901109288010CC012161306C1
:100FB0001CF42051310902C0205F3F4F309389015A
:100FC000209388012091520130915301CB01821B63
:100FD000930B68E270E0A3DB0091C6021091C70298
:100FE0002091C8023091C90200935201109353011D
:100FF00020935401309355016D3221E0720714F0B3
:101000006CE271E08B01643D4EEF740714F404ED63
:101010001EEFC8010996439760F0101611061CF4E4
:101020000A50110908C00115110529F0065F1F4F6C
:1010300002C000E010E0609188017091890188276A
:1010400077FD8095982F0E94411E28EA39E840E0FC
:1010500056E30E94121F6B017C01BE0180E090E00C
:101060000E943F1E9B01AC01C701B6010E94121FE6
:1010700020914E0130914F0140915001509151010A
:101080000E94421D26EF38E24CE75FE30E94121FE8
:101090006B017C01B801882777FD8095982F0E940D
:1010A000411E2FE832EC45E75CE30E94121F9B01D2
:1010B000AC01C701B6010E94421D60934E017093BE
:1010C0004F0180935001909351010E940E1EAB017D
:1010D0004C5F5F4F4930510528F41092CB021092BB
:1010E000CA020CC0161617061CF46550710902C01E
:1010F0006B5F7F4F7093CB026093CA024091D40123
:101100002091CA023091CB02429FC001439F900DB3
:101110001124E4E095958795EA95E1F787399105E3
:1011200014F086E990E08A36EFEF9E0714F48AE621
:101130009FEF2091FB023091FC02281B390B30936A
:10114000FC022093FB0281E001C080E0DF91CF919F
:101150001F910F91FF90EF90DF90CF90BF90AF90D5
:101160009F908F9008954F925F926F927F928F928F
:101170009F92AF92BF92CF92DF92EF92FF920F9326
:101180001F93CF93DF932091A6023091A7022D3DAC
:1011900045E03407C4F06091EB01203D57E035078E
:1011A00074F4A9014C5D5540649FC001659F900D8A
:1011B0001124892F869540E8942E981A06C090E84D
:1011C000992E961A02C080E8982E4090E901512C81
:1011D000C0EAAC2EC2E0BC2EE8E8F2E0CBECD1E0F5
:1011E00080E090E01CED612E15E0712E00E8802E6D
:1011F000D5016D917D915D016D3DB5E07B072CF0D2
:10120000603D47E074075CF007C0A301461B570B25
:10121000443FA1E05A0734F044EF51E003C0AB0172
:101220004C5D5540823009F467C06A01CC0CCD2C6E
:10123000CC1CDD08D1948601000F111F03581D4FEF
:10124000D801ED90FC908601000F111F01581D4F31
:10125000D8010D911C910E191F09D601B695BA2F10
:10126000AA27B795A7956A01CA1ADB0A0C9DD00177
:101270000D9DB00D1C9DB00D1124AA0FAB2FAA1F00
:10128000BB0BB195AE0DBF1DB183A083449DD001B2
:10129000459DB00D549DB00D11244B2F4695B82D92
:1012A000B41BB99DA0011124440F452F441F550BB9
:1012B0005195DE0112971C91149F7001159FF00C3F
:1012C0001124EE0CEF2CEE1CFF08F1948C01015B55
:1012D0001D4FD801EC921881149F7001159FF00CDE
:1012E0001124EE0CEF2CEE1CFF08F194AC01435BD3
:1012F0005D4FDA01EC9202C0518340836C3D754032
:101300003CF440815181519541955109518340836D
:101310000196329623968330910509F069CF2C34DB
:1013200044E034073CF0213D57E035072CF020ED38
:1013300037E002C02CE434E02C543440AFEFB9E085
:101340000E94081D24E833E040E050E00E94CA1CDF
:10135000832F9927FC01EE0FFF1FE959FD4FA08154
:10136000B181FC01EE0FFF1FE759FD4F60817181D4
:101370006A1B7B0B982F8827281B390B629FC001A3
:10138000639F900D729F900D1124892F99278A0FCA
:101390009B1F90938F0280938E028091B0018F5F8C
:1013A0008093B00180910C0390910D03892B31F44F
:1013B0008091080390910903892B11F01D9A08C0B0
:1013C0008091B60282FD2D988091B60281FD2D9A02
:1013D000409112035091130360911403709115030F
:1013E0008091AC019091AD01A091AE01B091AF019F
:1013F00084179507A607B70700F58091B60287FD09
:1014000019C08B7F8093B6021D9A80911203909130
:101410001303A0911403B091150380569947AE4F62
:10142000BF4F8093AC019093AD01A093AE01B093F8
:10143000AF0103C084608093B602DF91CF911F910A
:101440000F91FF90EF90DF90CF90BF90AF909F9063
:101450008F907F906F905F904F900C94491340E075
:1014600052EC61E070E080E00E94FE1A259A209A1A
:1014700034D60E94FA0010923D020E94A40180918D
:101480003D02882321F0815080933D02F6CF0E94D7
:10149000FA000E94A40140913D024F5F68E282E0A1
:1014A0000E94C6000E94B2130E94BE1A0E94EB1B4B
:1014B000709311036093100380E092E0909309030E
:1014C0008093080388EC90E090930B0380930A03C9
:1014D0008091B60280688093B602089580910803D7
:1014E000909109032091B602892B89F422FF0FC045
:1014F000822F8274B1F422602093B6028091C402DC
:101500009091C5029093070380930603089521FDEF
:1015100008C041E06FEF82E00E94C60081E0809346
:10152000C30108958091B60281FF03C08D7F80932F
:10153000B60208952F923F924F925F926F927F92E0
:101540008F929F92AF92BF92CF92DF92EF92FF92D3
:101550000F931F93CF93DF93CDB7DEB76A970FB684
:10156000F894DEBF0FBECDBF80911203909113039C
:101570002091AA013091AB018C01021B130B1016B4
:1015800011060CF03EC1805E914B9093AB018093AD
:10159000AA010E948714E0EAF2E040E0842F90E084
:1015A0009595879595958795482F219131912D3463
:1015B00014E0310724F040682C3637400CF44064C6
:1015C00062E0E83AF60751F78091A901481308C094
:1015D0008091A8018A3F30F48F5F8093A80102C0F8
:1015E0001092A8014093A9018091A6029091A702B0
:1015F0008D34944054F51092A5011092A4011092DC
:10160000A7011092A6011092A0011092A1011092C0
:10161000A2011092A30110929D0110929C011092C0
:101620009F0110929E018091F2019091F301892B0C
:1016300061F0909101038091B602992321F080FF1F
:1016400002C04CDF02C081FD6DDF8091A8018431B2
:1016500009F074C08091B60281FF0EC08091F20142
:101660009091F301892B09F069C08091A9018F3510
:1016700009F064C057DF62C02091A901273569F4E1
:1016800080E092E090930903809308038AE090E061
:1016900090930B0380930A0309C02B3639F40E9400
:1016A000EB1B70931103609310031AC08091F20139
:1016B0009091F301892B21F42F3611F40FDF10C024
:1016C000273939F480E092E090930D0380930C0366
:1016D00007C0273A29F48091B70281608093B7024E
:1016E0008091A9018B3B31F48091F0019091F1013F
:1016F000029607C0873B51F48091F0019091F1016F
:1017000002979093F1018093F00113C08E3B31F466
:101710008091EE019091EF01029607C08D3B71F42C
:101720008091EE019091EF0102979093EF018093E9
:10173000EE0181E00E949E021092A801A8EAB2E0A8
:1017400080E090E020E030E04D915D9161E070E05C
:10175000453AF6E05F0714F460E070E0FC01329671
:101760008B0102C0000F111FEA95E2F7F80161E05A
:1017700070E0443115E0510714F060E070E0082E8D
:1017800002C0660F771F0A94E2F76E2B7F2B45513C
:101790005540E1E0F0E04F38514010F0E0E0F0E07B
:1017A000AC014F5F5F4F8F0102C0000F111F4A95C0
:1017B000E2F7A801462B572B242B352B03968C30B0
:1017C000910511F6E2EFF1E0A1E0B3E08191919192
:1017D0008223932341E0892B09F440E04D9311E0EB
:1017E000EC3FF10799F7809102032091B602811135
:1017F0009AC38091B0029091B102C3970CF093C349
:10180000A0C3809199018230D9F028F4882341F057
:10181000813069F01FC08330D9F08430C9F01AC01C
:1018200081E0809399010E945D18811113C080911D
:1018300099018F5F809399010E94F61681110AC069
:10184000809199018F5F8093990189DA811102C09B
:10185000109299010E94EB1B609312037093130383
:10186000809314039093150320911003309111037A
:10187000AB01421B530B9A0150930F0340930E038D
:10188000203F3A4038F3709311036093100302DA5B
:1018900040918C0250918D029A012B5B3F4FF0904A
:1018A000B6028091C4029091C5022B38310560F5D3
:1018B000F5FE2AC02091060330910703821B930B8B
:1018C0008D346FEF960714F488599E4F843B910531
:1018D00014F088569140F7FC04C02091B70226709E
:1018E000B9F06091E101689F9001699F300D11246A
:1018F00065E0359527956A95E1F7421B530B5093A8
:101900008D0240938C0204C09093070380930603DA
:10191000F6FE7AC0E0919A01F0919B0120918E022F
:1019200030918F022E1B3F0BC90137FF04C088275F
:101930009927821B930BC3970CF446C08091B70282
:1019400083FD42C08091970190919801820F931F6F
:1019500090939801809397019C0197FF04C02227E0
:101960003327281B390B2130324054F19C0197FF5B
:1019700002C021503E4F8901012F110F110B059517
:10198000222717FD2095322F4091FD025091FE0233
:101990006091FF0270910003400F511F621F731F7F
:1019A0004093FD025093FE026093FF027093000388
:1019B00060E072E00E94B71C9093980180939701B9
:1019C00081E08093960116C080919601882391F062
:1019D0008091C6029091C702A091C802B091C9023D
:1019E0008093FD029093FE02A093FF02B093000348
:1019F000109296018091FB029091FC028E0F9F1F26
:101A000090938F0280938E02F4FE23C080908A020E
:101A100090908B0297FE03C09194819491088091DD
:101A200088029091890297FF03C091958195910951
:101A30009401881699060CF49C01213012E03107BC
:101A400014F020E032E04901AA2497FCA094BA2CBB
:101A500003C0812C912C540108E812E0188F0F8BE1
:101A60000BED12E01E830D8304EA11E01A83098353
:101A70000FE412E01E8B0D8B02E911E0188B0F872B
:101A80000EE811E01E870D870AE811E01C870B871E
:101A90000DE412E01C8B0B8B01E612E01A8B098B14
:101AA0000AEC11E01A87098709EC11E018870F8307
:101AB0000CE911E01C830B8300E010E0EF89F88D46
:101AC00041905190F88FEF8B440C551CED81FE81B5
:101AD00080819181E981FA81408151819C0197FF48
:101AE00004C022273327281B390B21383240BCF48D
:101AF0009201281B390BC901840F951F81383EE3E1
:101B0000930714F080E89EE3803841EC940714F4C6
:101B100080E891ECE981FA819183808304C0E981B6
:101B2000FA8111821082E981FA8180819181880F86
:101B3000892F881F990BE985FA852081289F30011C
:101B4000299F700C1124A6E075946794AA95E1F77B
:101B5000EF81F885608170E0C2010E948F036B0104
:101B60007C01B6E0F594E794D794C794BA95D1F781
:101B700016018091B602887109F490C0F801EB5308
:101B8000FE4F80819181840D951D853FF1E09F0777
:101B900014F084EF91E08C302EEF920714F48CE077
:101BA0009EEFF801E054FD4F20813181821B930BA1
:101BB000F801E753FE4F25A136A1820F931FEB8159
:101BC000FC8120813181280F391F2131F7E23F0745
:101BD00014F020E137E2203F48ED340714F420EF01
:101BE00038EDEB81FC81318320836091DE0170E070
:101BF0000E948F03E7E09595879577956795EA951D
:101C0000D1F72091E001F5E02F9F900111244427A6
:101C10005527421B530B5A8F498F641775073CF0A9
:101C20007A8F698F2617370714F43A8F298F6091BE
:101C3000DF0170E0EB81FC81808191810E948F0344
:101C40001B012C013CE055944794379427943A9516
:101C5000D1F7D301A219B309A50194010E94271D50
:101C600049E095958795779567954A95D1F73B011A
:101C7000620C731CD601298D3A8DA21BB30BA501F2
:101C800094010E94271D59E0959587957795679552
:101C90005A95D1F7298C3A8C260E371EED89FE898C
:101CA0006191FE8BED8B70E0ED81FE8180819181F1
:101CB0000E948F036101EE24D7FCE094FE2CB6E075
:101CC0009595879577956795BA95D1F7C61AD70AEE
:101CD000E80AF90AED81FE8181919191FE83ED83FD
:101CE000EF85F88920813181AC01421B530B9A01A9
:101CF00081939193F88BEF87ED85FE85408151812B
:101D0000EB85FC8580819181840F951F41935193D0
:101D1000FC87EB87ED85FE8521933193FE87ED8768
:101D2000EB89FC896191FC8BEB8B70E0820F931F38
:101D30000E948F03C60CD71C25E095958795779553
:101D400067952A95D1F7C61AD70AE989FA89C19207
:101D5000D192FA8BE98B0E5F1F4F29813A812E5F5A
:101D60003F4F3A83298349855A854D5F5F4F5A8794
:101D700049878F819885039698878F83EB81FC81B3
:101D80003296FC83EB830430110509F097CE609105
:101D9000EA0170E0615F7F4F660F771F80918C02D0
:101DA00090918D020E948F036B017C01A5E0F59458
:101DB000E794D794C794AA95D1F78091DF029091C8
:101DC000E0025601A81AB90A6091D00170E0C5017D
:101DD0000E948F030091A0011091A1012091A20106
:101DE0003091A301A601D7FE04C0442755274C1902
:101DF0005D094333510524F5AB01BC01400F511F70
:101E0000621F731F4F3FFFEF5F076F07FFE07F0702
:101E100024F04EEF5FEF6FEF7FE042305105610538
:101E200000EF700724F442E050E060E070EF409370
:101E3000A0015093A1016093A2017093A30108C077
:101E40001092A0011092A1011092A2011092A30180
:101E50006091CF0170E0C5010E948F03E6E0959587
:101E6000879577956795EA95D1F72091D1014CE256
:101E700051E0421B510922273327241B350B6217DF
:101E800073072CF09B01461757070CF49A018091B9
:101E9000A0019091A101A091A201B091A3015DE0E8
:101EA000B595A795979587955A95D1F786301FEFE9
:101EB000910734F08B3F91052CF08AEF90E002C03F
:101EC00086E09FEF820F931F9093660280936502D6
:101ED0002FD18091B60281FD0CC0809108039091B2
:101EE0000903892B39F480910C0390910D03892B00
:101EF00009F4B0D06A960FB6F894DEBF0FBECDBF1E
:101F0000DF91CF911F910F91FF90EF90DF90CF90D5
:101F1000BF90AF909F908F907F906F905F904F9009
:101F20003F902F9098C023FD1BC010929D011092EE
:101F30009C0110929F0110929E0128602093B6028E
:101F40000FC023FF08C01092A5011092A4011092A7
:101F5000A7011092A6018091B602877F8093B602F6
:101F600080910303882389F08091B602877F809354
:101F7000B60284FD1BC010929D0110929C0110922C
:101F80009F0110929E0180610FC08091B60284FF74
:101F900008C01092A5011092A4011092A7011092FE
:101FA000A6018091B6028F7E8093B60280910103D4
:101FB000811105C08091B60281608093B602809144
:101FC0000403882341F18091B60286FD29C0806414
:101FD0008093B6028091C6029091C702A091C80278
:101FE000B091C9028093FD029093FE02A093FF027C
:101FF000B093000380918E0290918F0290939B0189
:1020000080939A011092FA021092F9021092FC0247
:102010001092FB0205C08091B6028F7B8093B602BE
:1020200080910503882381F08091B60285FD12CC52
:1020300080628093B6028091C4029091C502909311
:1020400007038093060306CC8091B6028F7D8093B0
:10205000B60200CC0895809151029091520223E083
:10206000959587952A95E1F790938900809388004C
:10207000809153029091540233E0959587953A955B
:10208000E1F790938B0080938A00809155029091A4
:10209000560243E0959587954A95E1F78093B30002
:1020A000809157029091580253E0959587955A95E3
:1020B000E1F78093B4000895909352028093510207
:1020C000909354028093530290935602809355024A
:1020D0009093580280935702BECFCF93DF93CCE109
:1020E000D1E061E089910E946E1C81E0C032D80786
:1020F000C1F780918000806880938000809180008B
:102100008062809380008091B00080688093B000EE
:102110008091B00080628093B00088EE93E0CCDFC5
:102120006CE271E080E090E0DF91CF910C940E1CA6
:10213000FF920F931F93CF93DF9360918E02709164
:102140008F028091610290916202AB01481B590B92
:10215000A0916302B0916402E0916502F091660281
:102160009A012A0F3B1F2E1B3F0B309352022093E4
:1021700051024A1B5B0B4E0F5F1F5093540240935A
:102180005302860F971FBC016A0F7B1F6E0F7F1FC4
:1021900070935602609355028A1B9B0B8E1B9F0BFC
:1021A0009093580280935702641775070CF4BA0194
:1021B000621773070CF4B9019B01681779070CF4D7
:1021C0009C014091370250913802A091A602B09133
:1021D000A7028091B602182F1074F12E082F0270FA
:1021E000E1E5F2E06AE377E0621B730BC8EED3E04F
:1021F0002B3387E0380734F080819181860F971F59
:102200009183808380819181841795073CF08B3383
:1022100017E0910724F08AE397E001C0CA01918397
:102220008083AC3484E0B80724F4F11002C05183F9
:102230004083011102C0D183C083329692E0E93518
:10224000F907B1F6DF91CF911F910F91FF9008959B
:1022500020915C0330E0F901E65EFC4F245E3C4FC8
:10226000615060F0408151E0540F5083D901A40FB8
:10227000B11D4C91DC014D93CD01F2CF0895CF9368
:10228000C82F682F80915C030E94831BE0915C0340
:10229000F0E0E55EFC4F90819C279083CF910895FC
:1022A0000F931F93CF93DF931F92CDB7DEB78C01AF
:1022B000680F601739F0F80181918F016983DFDFC2
:1022C0006981F7CF0F90DF91CF911F910F91089502
:1022D000CF93DF93D82FC62F84E2D1DF8DE4CFDFF9
:1022E000DD2311F081E201C08EE3C9DFE0915C03E0
:1022F000F0E0E55EFC4F10828C2FC1DFE0915C03C3
:10230000F0E0E75EFC4F8081DF91CF91B8CFE091A4
:102310005C03F0E0E55EFC4F8081B1DF80915C03FF
:102320000C94F81A60E080E0D3DFF1CF1F93CF93D5
:10233000DF93EC01162F80E0CBDF612FCE01B0DF01
:10234000DF91CF911F91E3CFCF93DF93EC010E94F8
:10235000A81F682F80E0BCDFFE018491882329F04C
:10236000FE0184918CDF2196F7CFDF91CF91CFCF03
:102370000F931F93CF93DF93CDB7DEB766970FB65A
:10238000F894DEBF0FBECDBF853709F437C108F022
:1023900065C08D3609F426C138F5873609F401C1C8
:1023A000B8F4853609F4CAC008F0F7C0843609F0DD
:1023B00061C180EF898383E08A831B8280E090E0A3
:1023C000A0E0B0E78C839D83AE83BF8367E0E2C06B
:1023D000893609F403C108F4F1C08C3609F04AC10A
:1023E00066E080EC92E044C1813709F40AC148F408
:1023F0008F3609F4FBC008F0FDC067E08CEC92E07A
:1024000037C1833709F40FC108F0FFC08091B202D1
:102410009091B3029A838983809137029091380218
:102420009C838B838AE397E09E838D8388EE93E081
:1024300098878F831A8619861C861B861D861E86A2
:102440001F86188A8091FD019091FE019A8B898BDD
:102450001B8A1C8A1D8A1E8A66E19CC08E3C09F478
:10246000F8C0E8F48A3C09F44CC078F4883709F4E1
:102470009CC0883C09F43DC0873709F0FBC065E08B
:1024800080E026DF02EC10E0C4C08C3C09F43EC0C2
:1024900008F0D4C047DF6AE082EF91E03BC0843DA2
:1024A00009F487C060F4803D09F4C1C0A8F1833D00
:1024B00009F0E0C037DF62E086E093E02BC0803FA8
:1024C00009F480C060F48F3E09F0D4C02BDF62E0D5
:1024D00080EF91E0BDDE62E08EEE91E01BC08A3FAE
:1024E00009F4C1C08E3F09F0C5C068E088EB92E0F6
:1024F000BFC060E180E992E0ABDE82E380938702B7
:10250000BDC010DF6EE189EC91E004C00BDF67E035
:1025100087EE91E09DDEB2C005DF66E1CE01019657
:1025200097DE8B819C819093380280933702898952
:102530009A899093FE018093FD01A0C080910E03C3
:1025400090910F039A8389838091B4029091B50290
:102550009C838B8387E090E09E838D832091B602DD
:1025600023FD04C080E090E0DC0104C082E090E044
:10257000A0E0B0E024FD846026FD886025FD806138
:1025800021FD81608F839887A987BA8780913D025A
:102590008B876BE0CE0101966BC062E185ED92E026
:1025A00067C060E18CE091E063C068E38FEF91E089
:1025B0005FC0B8DE68E38FEF91E0ACCF60E181E50A
:1025C00092E056C064E080E083DE62E080EF91E05C
:1025D00067DE62E08EEE91E063DE4FC060E180EA8C
:1025E00092E046C066E086EC92E042C067E087EE8B
:1025F00091E03EC06EE189EC91E03AC083EE90E05C
:1026000006C06AE082EF91E033C087EC90E09CDE88
:1026100035C0F801849133DE0F5F1F4FF0E0073CB7
:102620001F07B9F72AC068E08CE191E021C08091D2
:10263000B60281FD1BC00E942C0118C08091B60219
:1026400081FD14C080E092E090930D0380930C0311
:102650000DC08091B60281FD09C08091B7028160F2
:102660008093B70203C080E00E949E025BDE06C03A
:102670005DDE04C060E081E02BDE49DE66960FB6C9
:10268000F894DEBF0FBECDBFDF91CF911F910F91A8
:102690000895CF930E94EB1B10925C0380E00E9490
:1026A0006A1BCFEFC80F882309F45AC080E00E944C
:1026B000761B8F3408F054C080E0F7D79091180350
:1026C000911105C091E0843209F042C045C09130BB
:1026D00021F48D34E9F592E03FC0923021F48C333F
:1026E000B9F593E039C0933061F48134B8F5809343
:1026F000170380931B031092160310921A0394E0A1
:102700002BC0943049F48093190390911B039827B0
:1027100090931B0395E020C09530F1F4E0911603EF
:102720003091170320911B03E31760F428272093AF
:102730001B0321E02E0F20931603F0E0E45EFC4F14
:1027400080830AC0281306C08091190311DE02C0DD
:1027500090E002C090E0C0E0909318038C2FA1CFCE
:10276000CF910895E0E4F1E08BB1DF019191892BE5
:102770008BB980916D009C91892B80936D0081E0D5
:10278000E534F80789F784E08093680008951F9284
:102790000F920FB60F9211242F933F934F935F9395
:1027A0006F937F938F939F93AF93BF93CF93DF9359
:1027B000EF93FF93C9B1D0919E03DC270E94EB1BDE
:1027C0007894C0939E03D2FF18C0C2FD12C020911E
:1027D0008E0330918F03AB01421B530B9A01455876
:1027E00053404331554048F4309329012093280148
:1027F00004C070938F0360938E03D4FF18C0C4FD90
:1028000012C02091900330919103AB01421B530BF6
:102810009A01455853404331554048F430932D01B7
:1028200020932C0104C07093910360939003D5FF13
:1028300018C0C5FD12C02091920330919303AB01E3
:10284000421B530B9A01455853404331554048F4BD
:1028500030932F0120932E0104C070939303609353
:102860009203D6FF18C0C6FD12C020919403309188
:102870009503AB01421B530B9A014558534043311A
:10288000554048F4309331012093300104C07093D7
:10289000950360939403D7FF17C0C7FD11C0209123
:1028A000960330919703621B730BCB0185589340BD
:1028B0008331954048F4709333016093320104C032
:1028C0007093970360939603FF91EF91DF91CF91FF
:1028D000BF91AF919F918F917F916F915F914F9138
:1028E0003F912F910F900FBE0F901F9018952FB70B
:1028F000F894E82FF0E0EB5BFE4FE081F0E0EE0FA4
:10290000FF1FEC5DFE4F808191812FBF0895CF9214
:10291000DF92EF92FF920F931F93CF93DF938091FB
:102920008D038F5F833019F080938D0302C0109266
:102930008D036DE5E62E63E0F62EC0EAD2E070E985
:10294000C72E72E0D72E00E010E0802FD0DF9C0170
:102950002E5F3F4FF70140815181240F351F428187
:102960005381240F351F44815581240F351F36951F
:102970002795369527954881598143505109241749
:10298000350728F4A9014E5F5F4F5983488348817A
:1029900059814D5F5F4F4217530720F42250310990
:1029A0003983288320918D03F801EE0FFF1FE00F7C
:1029B000F11FE20FF11DEE0FFF1FE35AFC4F918351
:1029C000808380918702882361F081508093870201
:1029D000F601808191818538F3E09F0714F0998397
:1029E00088830F5F1F4F26E0E20EF11C229682E0E3
:1029F000C80ED11C0830110509F0A7CFDF91CF9187
:102A00001F910F91FF90EF90DF90CF900895449821
:102A100045981092B9008CE08093B80084E08093D0
:102A2000BC001092B5021092B40208958093BC00CD
:102A30008FEF9091BC0097FD0EC08150D1F710929E
:102A4000BC008091B4029091B50201969093B502BA
:102A50008093B40208950895CF93C82F84EAE6DFE7
:102A6000C093BB0084E8CF91E1CF8093BB0084E8A2
:102A7000DDCF84ECDBDF8091BB00089584E8D6DFF6
:102A80008091BB0094E99093BC000895CF92DF92AF
:102A9000EF92FF920F931F93CF93DF931F92CDB7C7
:102AA000DEB7182F6A01E22E880F6983D5DF6981AE
:102AB000862FDBDF812F880F8160CEDF8601FE2C21
:102AC000FA9429F0D6DFF80181938F01F9CFEA94C7
:102AD00086010E0D111DD2DFF80180830F90DF916A
:102AE000CF911F910F91FF90EF90DF90CF900895BD
:102AF00026E04BE454E0CACF63E08EE1F9DF809139
:102B00004B0490E0982F882720914C04822B9093BF
:102B1000E2028093E10280914F0490E0982F882791
:102B200020915004822B9093E4028093E3028091E1
:102B30004D0490E0982F882720914E04822B919588
:102B4000819591099093E6028093E5020895CF93D1
:102B5000DF9300D0CDB7DEB7880F4A8369837CDF6F
:102B60006981862F82DF4A81842F7FDF84E9809309
:102B7000BC000F900F90DF91CF9108951F93CF93DA
:102B8000DF93482F60E08EE1E2DF1AE041E062E08F
:102B90008EE1DDDF64E670E080E090E03FD6ACDF00
:102BA000E1EEF2E0C6E2D4E02191319137FF03C0BB
:102BB000319521953109A901662757FD6095762F3A
:102BC00088819981AA81BB81840F951FA61FB71F99
:102BD00089939993A993B9932130304144F482E0C9
:102BE000E73EF80709F7115089F681E001C080E05F
:102BF000DF91CF911F910895CF92DF92EF92FF92D4
:102C0000CF93DF93209108033091090321153105FB
:102C1000B9F1C7EED2E0EAE1F4E043EF52E021156A
:102C200082E0380721F41082118212821382899186
:102C30009991AA2797FDA095BA2FC080D180E280F4
:102C4000F3808C0D9D1DAE1DBF1D81939193A193AB
:102C5000B1936C017D0169E0F594E794D794C79432
:102C60006A95D1F7DA01CD92DD92AD01B2E0CD3EA9
:102C7000DB07A9F62150310930930903209308039B
:102C8000E3EFF2E0C7EED2E0A4E1B4E081919191EC
:102C900028813981281B390B4D915C911197CA010C
:102CA000805293402817390734F0805C994F2817D9
:102CB00039070CF4C901899399938D939D9382E010
:102CC000E93FF80719F7DF91CF91FF90EF90DF9080
:102CD000CF900895CF92DF92EF92FF92CF93DF9340
:102CE00020910C0330910D032115310509F44DC0DD
:102CF0002150310930930D0320930C03CDEED2E027
:102D0000E8E0F4E04EE352E02F3F81E0380721F4A1
:102D1000108211821282138289919991AA2797FDBC
:102D2000A095BA2FC080D180E280F3808C0D9D1DCC
:102D3000AE1DBF1D81939193A193B1936C017D0151
:102D400079E0F594E794D794C7947A95D1F7DA01AE
:102D5000CD92DD92AD01B2E0C33FDB07A9F6232B94
:102D6000A1F48091420290914302925090934302C9
:102D7000809342021092EF011092EE011092F10145
:102D80001092F00181E00E9413018091ED02909178
:102D9000EE0220913E0230913F02821B930B9093F2
:102DA000EE028093ED028091EF029091F00220916B
:102DB000400230914102821B930B9093F00280936A
:102DC000EF028091F1029091F20220914202309143
:102DD0004302821B930B9093F2028093F102DF91E6
:102DE000CF91FF90EF90DF90CF9008954F925F9238
:102DF0006F927F928F929F92AF92BF92CF92DF920B
:102E0000EF92FF920F931F93CF93DF93109148049B
:102E1000123009F0CCC010924804C0903C04D0900D
:102E20003D04E12CF12CFE2CED2CDC2CCC2460910B
:102E300040047091410480914204909143046C19C4
:102E40007D098E099F091DD72B013C016091360435
:102E500070913704CB01A0E0B0E0772766270FD749
:102E60006B017C0160913A0470913B0480E090E03A
:102E700006D79B01AC01C301B201D4D720E030E0FA
:102E800040E05CE3CFD79B01AC01C701B601FAD5A6
:102E90006B017C01609134047091350480E090E016
:102EA000DFE0660F771F881F991FDA95D1F7E7D605
:102EB0004B015C01609138047091390480E090E02E
:102EC000DED69B01AC01C301B201ACD720E030E0FB
:102ED00040E85BE3A7D79B01AC01C501B401D2D5A3
:102EE0004B015C0160913E0470913F0480E090E0F2
:102EF000C6D69B01AC01C301B20194D720E030E0FB
:102F000040E054E38FD78AD69B012053384F30934B
:102F1000B6012093B50197FF27C09B01AC0118D5DE
:102F20009B01AC01A5E0B0E088D52B013C01959553
:102F3000879577956795A5D69B01AC01C701B6012A
:102F4000A0D56B017C01C301B201F2E09595879594
:102F500077956795FA95D1F794D69B01AC01C50199
:102F6000B4018FD54B015C0160914404709145041C
:102F7000809146049091470482D6A501940152D7CE
:102F800020E030E040E055E34DD7A701960179D528
:102F900020E030E040E058E345D740D66093B701E9
:102FA0007093B8018093B9019093BA0172C0809177
:102FB0001203909113032091490430914A04AC010B
:102FC000421B530B57FD67C0805F984D90934A0496
:102FD00080934904111141C0E091070421E02E0FB4
:102FE000253109F420E04091B7015091B80160917A
:102FF000B9017091BA0184E0E89FF0011124ED5409
:10300000FC4F40835183628373838091B10190911F
:10301000B201A091B301B091B401840F951FA61F16
:10302000B71F34E0239FF0011124ED54FC4F408181
:10303000518162817381841B950BA60BB70B809322
:10304000B1019093B201A093B301B093B401209366
:10305000070408E4C0E4D4E003C008E5C4E4D4E015
:103060001F5F109348048EEEF7DC80E0FEDC8FEEED
:10307000F3DCFFDC182FFDDCF82E00DD8883F982FD
:103080001A831B828EEEE8DC802FEFDC84E98093CC
:10309000BC0081E001C080E0DF91CF911F910F91D2
:1030A000FF90EF90DF90CF90BF90AF909F908F9068
:1030B0007F906F905F904F9008954F925F926F92C4
:1030C0007F928F929F92AF92BF92CF92DF92EF92B8
:1030D000FF920F931F93CF93DF9300D000D0CDB713
:1030E000DEB7C0901203D0901303E0901403F09069
:1030F00015038091AF039091B003A091B103B091FB
:10310000B203C816D906EA06FB0608F40EC180EA27
:10311000C80E86E8D81E81E0E81EF11CC092AF03FD
:10312000D092B003E092B103F092B20369E488E672
:10313000DFDC80914B0490E0982F882720914C048D
:10314000822B9093E2028093E10280914F0490E001
:10315000982F882720915004822B9093E40280932B
:10316000E30280914D0490E0982F882720914E042F
:10317000822B9195819591099093E6028093E502C7
:103180009090B702A92DA1709A2E54E3A52E51E07C
:10319000B52E04E412E061EE662E62E0762EF501B3
:1031A00021913191419151915F01D3016D917C91B8
:1031B000882777FD8095982F29833A834B835C83FA
:1031C00060D529813A814B815C812CD627D5F301CA
:1031D00071836083911007C0D8012D913C91621BCF
:1031E000730B71836083B2E06B0E711C0E5F1F4F17
:1031F000E7EE6E16E2E07E0691F6992009F493C0A0
:103200008091AB039091AC03A091AD03B091AE035C
:10321000892B8A2B8B2B41F4C092AB03D092AC0349
:10322000E092AD03F092AE038091AB039091AC03BA
:10323000A091AD03B091AE03C81AD90AEA0AFB0AFD
:10324000F0E8CF16F3ECDF06F9ECEF06F1E0FF064D
:1032500008F059C01D9A4090AB035090AC036090A9
:10326000AD037090AE03C090AF03D090B003E09078
:10327000B103F090B203B090BB0105EA802E03E0E9
:10328000902EEFE9F3E041EE52E064E472E0A12C0D
:103290004C145D046E047F0441F4DA012D913C91DD
:1032A000D4012D933C9331832083DA012D913C91FD
:1032B000D4010D911C9111972017310724F42D93FF
:1032C0003C93BB24B394008111810217130724F4AB
:1032D00031832083BB24B394D4012D913D914D01C2
:1032E00001911191200F311F35952795DB012D9309
:1032F0003D93BD01A3944E5F5F4FB3E0AB12C8CFC7
:10330000B092BB0110C08091B7028E7F8093B7024C
:103310001092AB031092AC031092AD031092AE0367
:1033200081E00E94130181E001C080E00F900F90C6
:103330000F900F90DF91CF911F910F91FF90EF9021
:10334000DF90CF90BF90AF909F908F907F906F90C5
:103350005F904F90089563E488E6CADB80914D0446
:1033600090E0982F882720914E04822B9595879581
:10337000959587959093E8028093E70280914B049E
:1033800090E0982F882720914C04822B919581956D
:10339000910995958795959587959093EA028093E5
:1033A000E90280914F0490E0982F882720915004E3
:1033B000822B9195819591099595879595958795FE
:1033C0009093EC028093EB0217CC6BE388E690DBE2
:1033D00080914B0490E0982F882720914C04822BF9
:1033E00091958195910943E0959587954A95E1F7E7
:1033F0009093EE028093ED0280914D0490E0982F1F
:10340000882720914E04822B91958195910963E044
:10341000959587956A95E1F79093F0028093EF0276
:1034200080914F0490E0982F882720915004822BA0
:10343000E3E095958795EA95E1F79093F202809302
:10344000F10248CC0F931F93CF93DF93E0DA40E86B
:103450006BE688E67CDB62E370E080E090E0DED142
:1034600043E06BE688E673DB40E06AE188E66FDB09
:1034700048E16BE188E66BDB42E067E388E667DB07
:1034800040E06EE187E763DB64E670E080E090E0B7
:10349000C5D1C4E3D4E012EA8EEEDEDA812FE5DA9C
:1034A0008FEEDADAE6DA082FE9DA888309832296E2
:1034B0001E5F1E3A89F740E461E08EE148DB41E09F
:1034C00062E08EE144DB64E670E080E090E0A6D14B
:1034D00013DB81E153DBC82F82E150DB811131C066
:1034E00040E760E08EE133DB40E261E08EE12FDB1C
:1034F00040E062E08EE12BDB64E670E080E090E08B
:103500008DD140E16CE188E622DB40E26AE688E6A4
:103510001EDB40E067E388E61ADB4DE064E288E604
:1035200016DB4EE965E288E612DB43E066E288E6F8
:103530000EDB46E867E288E6DF91CF911F910F919D
:1035400006CBCC2369F2C6E2D4E004E311E0699132
:1035500079918991999195D39B01AC0160E070EAD2
:1035600084E996E4F3D2F801619371938193919386
:103570008F01F4E0C233DF0751F7B2CFCF93C5E03C
:1035800061DF8091B4029091B502892B11F0C15096
:10359000B9F7CF9108951F920F920FB60F92112491
:1035A0008F939F93EF93FF938091D1049091D204D6
:1035B000981761F08F5F87FD80E0E82FF0E0EF5A09
:1035C000FB4F90819093C6008093D1049091D204D8
:1035D000891305C08091C1008F7D8093C100FF9148
:1035E000EF919F918F910F900FBE0F901F901895A4
:1035F000E1ECF0E080818062808308959A01AB0164
:1036000081111DC060E079E08DE390E0C3D12150CD
:10361000310941095109569547953795279582E01B
:103620008093C000BB27A52F942F832F8093C500C4
:103630002093C4008091C10088698093C1000895DF
:10364000E62FF0E0DF01AC52BA4F9C9121E0290F48
:10365000ED52FB4FE90FF11D80832C9308951F92CB
:103660000F920FB60F9211242F933F934F935F93B6
:103670006F937F938F939F93AF93BF93EF93FF933A
:103680008091C60060E0DCDFFF91EF91BF91AF91C8
:103690009F918F917F916F915F914F913F912F916A
:1036A0000F900FBE0F901F901895282F30E0D90172
:1036B000AD52BA4F9C91F901ED52FB4FE90FF11D4C
:1036C0008081F901EC52FA4F2081291711F09F5F98
:1036D0009C930895282F30E0F901EC52FA4F808135
:1036E000F901ED52FA4F9081891B0895282F30E09F
:1036F000F901EE52FB4F8081F901EF52FB4F9081AF
:10370000891B8F770895E82FF0E0DF01AE52BB4FA1
:103710008C918F5F87FD80E0EF5AFB4FE80FF11D22
:1037200060838C93089508959ED0FDDF0E942F0A38
:10373000C0E0D0E00E949A0A2097E1F30E940000C6
:10374000F9CF1F920F920FB60F9211242F933F9330
:103750008F939F93AF93BF938091D6059091D70598
:10376000A091D805B091D9053091D50523E0230F5C
:103770002D3720F40196A11DB11D05C026E8230FA9
:103780000296A11DB11D2093D5058093D605909377
:10379000D705A093D805B093D9058091DA0590910B
:1037A000DB05A091DC05B091DD050196A11DB11DE1
:1037B0008093DA059093DB05A093DC05B093DD05DB
:1037C000BF91AF919F918F913F912F910F900FBE1D
:1037D0000F901F9018953FB7F8948091DA0590915B
:1037E000DB05A091DC05B091DD0526B5A89B05C0E1
:1037F0002F3F19F00196A11DB11D3FBF6627782FFD
:10380000892F9A2F620F711D811D911D42E0660F55
:10381000771F881F991F4A95D1F70895CF92DF929D
:10382000EF92FF92CF93DF936B017C01D4DFEB012A
:10383000C114D104E104F10479F089D0CCDF6C1B10
:103840007D0B683E7340A0F381E0C81AD108E108FF
:10385000F108C851DC4FECCFDF91CF91FF90EF9092
:10386000DF90CF900895789484B5826084BD84B54C
:10387000816084BD85B5826085BD85B5816085BD6B
:10388000EEE6F0E0808181608083E1E8F0E0108284
:10389000808182608083808181608083E0E8F0E0C5
:1038A000808181608083E1EBF0E0808184608083AF
:1038B000E0EBF0E0808181608083EAE7F0E08081E6
:1038C0008460808380818260808380818160808346
:1038D0008081806880831092C1000895CF93DF9328
:1038E00090E0FC01ED5EFE4F2491FC01E95DFE4F8E
:1038F0008491882349F190E0880F991FFC01EB5BCC
:10390000FE4FA591B491855C9E4FFC01C591D49169
:103910009FB7611108C0F8948C91209582238C93F5
:10392000888182230AC0623051F4F8948C91322F3E
:10393000309583238C938881822B888304C0F894EC
:103940008C91822B8C939FBFDF91CF910895089526
:10395000DB018F939F9371D0BF91AF91A29F800D98
:10396000911DA39F900DB29F900D1124089597FB78
:10397000072E16F4009406D077FD08D06ED007FC11
:1039800005D03EF4909581959F4F0895709561956F
:103990007F4F0895A1E21A2EAA1BBB1BFD010DC08B
:1039A000AA1FBB1FEE1FFF1FA217B307E407F507EF
:1039B00020F0A21BB30BE40BF50B661F771F881FCB
:1039C000991F1A9469F760957095809590959B0161
:1039D000AC01BD01CF010895052E97FB16F40094AC
:1039E0000FD057FD05D0D6DF07FC02D046F408C043
:1039F00050954095309521953F4F4F4F5F4F08951B
:103A000090958095709561957F4F8F4F9F4F08954A
:103A1000A29FB001B39FC001A39F700D811D11240F
:103A2000911DB29F700D811D1124911D0895F0DF2D
:103A3000B7FF0895821B930B0895EADFA59F900DB1
:103A4000B49F900DA49F800D911D11240895B7FF80
:103A5000F4CFF3DF821B930B0895AA1BBB1B51E12C
:103A600007C0AA1FBB1FA617B70710F0A61BB70BEE
:103A7000881F991F5A95A9F780959095BC01CD0193
:103A800008955058BB27AA270ED04DC13ED130F023
:103A900043D120F031F49F3F11F41EF433C10EF4F2
:103AA000E095E7FB29C1E92F4FD180F3BA176207F0
:103AB00073078407950718F071F49EF567C10EF43B
:103AC000E0950B2EBA2FA02D0B01B90190010C012E
:103AD000CA01A0011124FF27591B99F0593F50F446
:103AE000503E68F11A16F040A22F232F342F44279E
:103AF000585FF3CF469537952795A795F040539596
:103B0000C9F77EF41F16BA0B620B730B840BBAF065
:103B10009150A1F0FF0FBB1F661F771F881FC2F7D0
:103B20000EC0BA0F621F731F841F48F487957795E4
:103B30006795B795F7959E3F08F0B3CF9395880F9B
:103B400008F09927EE0F9795879508950CD0EBC054
:103B5000E3D040F0DAD030F021F45F3F19F0CCC070
:103B6000511115C1CFC0F0D098F39923C9F3552353
:103B7000B1F3951B550BBB27AA2762177307840760
:103B800038F09F5F5F4F220F331F441FAA1FA9F316
:103B900033D00E2E3AF0E0E830D091505040E69508
:103BA000001CCAF729D0FE2F27D0660F771F881F69
:103BB000BB1F261737074807AB07B0E809F0BB0B58
:103BC000802DBF01FF2793585F4F2AF09E3F51057C
:103BD00068F092C0DCC05F3FECF3983EDCF3869562
:103BE00077956795B795F7959F5FC9F7880F911DF2
:103BF0009695879597F90895E1E0660F771F881FDE
:103C0000BB1F621773078407BA0720F0621B730B90
:103C1000840BBA0BEE1F88F7E095089504D06894E2
:103C2000B111B5C0089598D088F09F5790F0B92F82
:103C30009927B751A0F0D1F0660F771F881F991F01
:103C40001AF0BA95C9F712C0B13081F09FD0B1E037
:103C500008959CC0672F782F8827B85F39F0B93F47
:103C6000CCF3869577956795B395D9F73EF4909503
:103C70008095709561957F4F8F4F9F4F0895E89481
:103C800009C097FB3EF490958095709561957F4FA4
:103C90008F4F9F4F9923A9F0F92F96E9BB27939552
:103CA000F695879577956795B795F111F8CFFAF462
:103CB000BB0F11F460FF1BC06F5F7F4F8F4F9F4F93
:103CC00016C0882311F096E911C0772321F09EE8F1
:103CD000872F762F05C0662371F096E8862F70E057
:103CE00060E02AF09A95660F771F881FDAF7880F31
:103CF0009695879597F9089597F99F6780E870E002
:103D000060E008959FEF80EC089500240A94161651
:103D1000170618060906089500240A9412161306B9
:103D2000140605060895092E0394000C11F4882347
:103D300052F0BB0F40F4BF2B11F460FF04C06F5F63
:103D40007F4F8F4F9F4F089557FD9058440F551F39
:103D500059F05F3F71F04795880F97FB991F61F00D
:103D60009F3F79F087950895121613061406551F84
:103D7000F2CF4695F1DF08C0161617061806991FF0
:103D8000F1CF86957105610508940895E894BB27E5
:103D900066277727CB0197F908950EF0A6C0B2CF1A
:103DA0006894AACFD9DFC8F39923D1F3C6F3DF9380
:103DB000CF931F930F93FF92C92FDD2788232AF0FB
:103DC0002197660F771F881FDAF720E030E040E880
:103DD0005FEB9FE3883920F0803E30F021968F77AB
:103DE00051DEE8E6F0E003C04DDEE5E9F0E08BD01F
:103DF0008B01BE01EC01FB2E6F5771097595771F82
:103E0000880B990B3EDF28E132E741E35FE316D0F0
:103E1000AF2D9801AE01FF900F911F91CF91DF91CF
:103E200042DE81CF0BD07FCF70DF28F075DF18F036
:103E3000952309F061CF66CF1124A9CF85DFA0F3C8
:103E4000959FD1F3950F50E0551F629FF001729F2F
:103E5000BB27F00DB11D639FAA27F00DB11DAA1F4E
:103E6000649F6627B00DA11D661F829F2227B00D9B
:103E7000A11D621F739FB00DA11D621F839FA00D26
:103E8000611D221F749F3327A00D611D231F849F76
:103E9000600D211D822F762F6A2F11249F575040CD
:103EA0008AF0E1F088234AF0EE0FFF1FBB1F661F68
:103EB000771F881F91505040A9F79E3F510570F021
:103EC0001BCF65CF5F3FECF3983EDCF3869577958B
:103ED0006795B795F795E7959F5FC1F7FE2B880F1C
:103EE000911D9695879597F908959F3F31F09150D0
:103EF00020F4879577956795B795880F911D9695CE
:103F0000879597F90895DF93CF931F930F93FF92AF
:103F1000EF92DF927B018C01689405C0DA2EEF01ED
:103F20008DDFFE01E894A59125913591459155913C
:103F3000AEF3EF01B8DDFE019701A801DA9479F73D
:103F4000DF90EF90FF900F911F91CF91DF91089537
:103F5000FC0105900020E9F7809590958E0F9F1F3A
:103F60000895DC01CB01FC01F999FECF06C0F2BD3A
:103F7000E1BDF89A319600B40D9241505040B8F727
:103F80000895DC01CB0102C02D9105D04150504075
:103F9000D8F70895262FF999FECF1FBA92BD81BD9B
:103FA00020BD0FB6F894FA9AF99A0FBE01960895BB
:043FB000F894FFCFB3
:103FB400000000000000000000000002DC05DC0539
:103FC400DC05DC05DC05DC05DC05E803090A0B037C
:103FD4000605100CDE05DE05DE05DE05DE05DE0564
:103FE400DE05DE050000803F0000803F0000803FCA
:0E3FF4000410204080040506020700010300AF
:00000001FF
